{
    "_format": "hh-sol-artifact-1",
    "contractName": "Domains_v1",
    "sourceName": "contracts/Domains_v1.sol",
    "abi": [
        {
            "inputs": [],
            "name": "AlreadyRegistered",
            "type": "error"
        },
        {
            "inputs": [
                {
                    "internalType": "string",
                    "name": "name",
                    "type": "string"
                }
            ],
            "name": "InvalidName",
            "type": "error"
        },
        {
            "inputs": [],
            "name": "Unauthorized",
            "type": "error"
        },
        {
            "anonymous": false,
            "inputs": [
                {
                    "indexed": false,
                    "internalType": "address",
                    "name": "previousAdmin",
                    "type": "address"
                },
                {
                    "indexed": false,
                    "internalType": "address",
                    "name": "newAdmin",
                    "type": "address"
                }
            ],
            "name": "AdminChanged",
            "type": "event"
        },
        {
            "anonymous": false,
            "inputs": [
                {
                    "indexed": true,
                    "internalType": "address",
                    "name": "owner",
                    "type": "address"
                },
                {
                    "indexed": true,
                    "internalType": "address",
                    "name": "approved",
                    "type": "address"
                },
                {
                    "indexed": true,
                    "internalType": "uint256",
                    "name": "tokenId",
                    "type": "uint256"
                }
            ],
            "name": "Approval",
            "type": "event"
        },
        {
            "anonymous": false,
            "inputs": [
                {
                    "indexed": true,
                    "internalType": "address",
                    "name": "owner",
                    "type": "address"
                },
                {
                    "indexed": true,
                    "internalType": "address",
                    "name": "operator",
                    "type": "address"
                },
                {
                    "indexed": false,
                    "internalType": "bool",
                    "name": "approved",
                    "type": "bool"
                }
            ],
            "name": "ApprovalForAll",
            "type": "event"
        },
        {
            "anonymous": false,
            "inputs": [
                {
                    "indexed": true,
                    "internalType": "address",
                    "name": "beacon",
                    "type": "address"
                }
            ],
            "name": "BeaconUpgraded",
            "type": "event"
        },
        {
            "anonymous": false,
            "inputs": [
                {
                    "indexed": true,
                    "internalType": "address",
                    "name": "previousOwner",
                    "type": "address"
                },
                {
                    "indexed": true,
                    "internalType": "address",
                    "name": "newOwner",
                    "type": "address"
                }
            ],
            "name": "OwnershipTransferred",
            "type": "event"
        },
        {
            "anonymous": false,
            "inputs": [
                {
                    "indexed": true,
                    "internalType": "address",
                    "name": "from",
                    "type": "address"
                },
                {
                    "indexed": true,
                    "internalType": "address",
                    "name": "to",
                    "type": "address"
                },
                {
                    "indexed": true,
                    "internalType": "uint256",
                    "name": "tokenId",
                    "type": "uint256"
                }
            ],
            "name": "Transfer",
            "type": "event"
        },
        {
            "anonymous": false,
            "inputs": [
                {
                    "indexed": true,
                    "internalType": "address",
                    "name": "implementation",
                    "type": "address"
                }
            ],
            "name": "Upgraded",
            "type": "event"
        },
        {
            "inputs": [
                {
                    "internalType": "address",
                    "name": "to",
                    "type": "address"
                },
                {
                    "internalType": "uint256",
                    "name": "tokenId",
                    "type": "uint256"
                }
            ],
            "name": "approve",
            "outputs": [],
            "stateMutability": "nonpayable",
            "type": "function"
        },
        {
            "inputs": [
                {
                    "internalType": "address",
                    "name": "owner",
                    "type": "address"
                }
            ],
            "name": "balanceOf",
            "outputs": [
                {
                    "internalType": "uint256",
                    "name": "",
                    "type": "uint256"
                }
            ],
            "stateMutability": "view",
            "type": "function"
        },
        {
            "inputs": [
                {
                    "internalType": "string",
                    "name": "",
                    "type": "string"
                }
            ],
            "name": "domains",
            "outputs": [
                {
                    "internalType": "address",
                    "name": "",
                    "type": "address"
                }
            ],
            "stateMutability": "view",
            "type": "function"
        },
        {
            "inputs": [
                {
                    "internalType": "string",
                    "name": "name",
                    "type": "string"
                }
            ],
            "name": "getAddress",
            "outputs": [
                {
                    "internalType": "address",
                    "name": "",
                    "type": "address"
                }
            ],
            "stateMutability": "view",
            "type": "function"
        },
        {
            "inputs": [],
            "name": "getAllNames",
            "outputs": [
                {
                    "internalType": "string[]",
                    "name": "",
                    "type": "string[]"
                }
            ],
            "stateMutability": "view",
            "type": "function"
        },
        {
            "inputs": [
                {
                    "internalType": "uint256",
                    "name": "tokenId",
                    "type": "uint256"
                }
            ],
            "name": "getApproved",
            "outputs": [
                {
                    "internalType": "address",
                    "name": "",
                    "type": "address"
                }
            ],
            "stateMutability": "view",
            "type": "function"
        },
        {
            "inputs": [
                {
                    "internalType": "string",
                    "name": "name",
                    "type": "string"
                }
            ],
            "name": "getRecord",
            "outputs": [
                {
                    "internalType": "string",
                    "name": "",
                    "type": "string"
                }
            ],
            "stateMutability": "view",
            "type": "function"
        },
        {
            "inputs": [
                {
                    "internalType": "string",
                    "name": "_tld",
                    "type": "string"
                }
            ],
            "name": "initialize",
            "outputs": [],
            "stateMutability": "payable",
            "type": "function"
        },
        {
            "inputs": [
                {
                    "internalType": "address",
                    "name": "owner",
                    "type": "address"
                },
                {
                    "internalType": "address",
                    "name": "operator",
                    "type": "address"
                }
            ],
            "name": "isApprovedForAll",
            "outputs": [
                {
                    "internalType": "bool",
                    "name": "",
                    "type": "bool"
                }
            ],
            "stateMutability": "view",
            "type": "function"
        },
        {
            "inputs": [],
            "name": "name",
            "outputs": [
                {
                    "internalType": "string",
                    "name": "",
                    "type": "string"
                }
            ],
            "stateMutability": "view",
            "type": "function"
        },
        {
            "inputs": [
                {
                    "internalType": "uint256",
                    "name": "",
                    "type": "uint256"
                }
            ],
            "name": "names",
            "outputs": [
                {
                    "internalType": "string",
                    "name": "",
                    "type": "string"
                }
            ],
            "stateMutability": "view",
            "type": "function"
        },
        {
            "inputs": [],
            "name": "owner",
            "outputs": [
                {
                    "internalType": "address",
                    "name": "",
                    "type": "address"
                }
            ],
            "stateMutability": "view",
            "type": "function"
        },
        {
            "inputs": [
                {
                    "internalType": "uint256",
                    "name": "tokenId",
                    "type": "uint256"
                }
            ],
            "name": "ownerOf",
            "outputs": [
                {
                    "internalType": "address",
                    "name": "",
                    "type": "address"
                }
            ],
            "stateMutability": "view",
            "type": "function"
        },
        {
            "inputs": [
                {
                    "internalType": "string",
                    "name": "name",
                    "type": "string"
                }
            ],
            "name": "price",
            "outputs": [
                {
                    "internalType": "uint256",
                    "name": "",
                    "type": "uint256"
                }
            ],
            "stateMutability": "pure",
            "type": "function"
        },
        {
            "inputs": [],
            "name": "proxiableUUID",
            "outputs": [
                {
                    "internalType": "bytes32",
                    "name": "",
                    "type": "bytes32"
                }
            ],
            "stateMutability": "view",
            "type": "function"
        },
        {
            "inputs": [
                {
                    "internalType": "string",
                    "name": "",
                    "type": "string"
                }
            ],
            "name": "records",
            "outputs": [
                {
                    "internalType": "string",
                    "name": "",
                    "type": "string"
                }
            ],
            "stateMutability": "view",
            "type": "function"
        },
        {
            "inputs": [
                {
                    "internalType": "string",
                    "name": "name",
                    "type": "string"
                }
            ],
            "name": "register",
            "outputs": [],
            "stateMutability": "payable",
            "type": "function"
        },
        {
            "inputs": [],
            "name": "renounceOwnership",
            "outputs": [],
            "stateMutability": "nonpayable",
            "type": "function"
        },
        {
            "inputs": [
                {
                    "internalType": "address",
                    "name": "from",
                    "type": "address"
                },
                {
                    "internalType": "address",
                    "name": "to",
                    "type": "address"
                },
                {
                    "internalType": "uint256",
                    "name": "tokenId",
                    "type": "uint256"
                }
            ],
            "name": "safeTransferFrom",
            "outputs": [],
            "stateMutability": "nonpayable",
            "type": "function"
        },
        {
            "inputs": [
                {
                    "internalType": "address",
                    "name": "from",
                    "type": "address"
                },
                {
                    "internalType": "address",
                    "name": "to",
                    "type": "address"
                },
                {
                    "internalType": "uint256",
                    "name": "tokenId",
                    "type": "uint256"
                },
                {
                    "internalType": "bytes",
                    "name": "_data",
                    "type": "bytes"
                }
            ],
            "name": "safeTransferFrom",
            "outputs": [],
            "stateMutability": "nonpayable",
            "type": "function"
        },
        {
            "inputs": [
                {
                    "internalType": "address",
                    "name": "operator",
                    "type": "address"
                },
                {
                    "internalType": "bool",
                    "name": "approved",
                    "type": "bool"
                }
            ],
            "name": "setApprovalForAll",
            "outputs": [],
            "stateMutability": "nonpayable",
            "type": "function"
        },
        {
            "inputs": [
                {
                    "internalType": "string",
                    "name": "name",
                    "type": "string"
                },
                {
                    "internalType": "string",
                    "name": "record",
                    "type": "string"
                }
            ],
            "name": "setRecord",
            "outputs": [],
            "stateMutability": "nonpayable",
            "type": "function"
        },
        {
            "inputs": [
                {
                    "internalType": "bytes4",
                    "name": "interfaceId",
                    "type": "bytes4"
                }
            ],
            "name": "supportsInterface",
            "outputs": [
                {
                    "internalType": "bool",
                    "name": "",
                    "type": "bool"
                }
            ],
            "stateMutability": "view",
            "type": "function"
        },
        {
            "inputs": [],
            "name": "symbol",
            "outputs": [
                {
                    "internalType": "string",
                    "name": "",
                    "type": "string"
                }
            ],
            "stateMutability": "view",
            "type": "function"
        },
        {
            "inputs": [],
            "name": "tld",
            "outputs": [
                {
                    "internalType": "string",
                    "name": "",
                    "type": "string"
                }
            ],
            "stateMutability": "view",
            "type": "function"
        },
        {
            "inputs": [
                {
                    "internalType": "uint256",
                    "name": "tokenId",
                    "type": "uint256"
                }
            ],
            "name": "tokenURI",
            "outputs": [
                {
                    "internalType": "string",
                    "name": "",
                    "type": "string"
                }
            ],
            "stateMutability": "view",
            "type": "function"
        },
        {
            "inputs": [
                {
                    "internalType": "address",
                    "name": "from",
                    "type": "address"
                },
                {
                    "internalType": "address",
                    "name": "to",
                    "type": "address"
                },
                {
                    "internalType": "uint256",
                    "name": "tokenId",
                    "type": "uint256"
                }
            ],
            "name": "transferFrom",
            "outputs": [],
            "stateMutability": "nonpayable",
            "type": "function"
        },
        {
            "inputs": [
                {
                    "internalType": "address",
                    "name": "newOwner",
                    "type": "address"
                }
            ],
            "name": "transferOwnership",
            "outputs": [],
            "stateMutability": "nonpayable",
            "type": "function"
        },
        {
            "inputs": [
                {
                    "internalType": "address",
                    "name": "newImplementation",
                    "type": "address"
                }
            ],
            "name": "upgradeTo",
            "outputs": [],
            "stateMutability": "nonpayable",
            "type": "function"
        },
        {
            "inputs": [
                {
                    "internalType": "address",
                    "name": "newImplementation",
                    "type": "address"
                },
                {
                    "internalType": "bytes",
                    "name": "data",
                    "type": "bytes"
                }
            ],
            "name": "upgradeToAndCall",
            "outputs": [],
            "stateMutability": "payable",
            "type": "function"
        },
        {
            "inputs": [
                {
                    "internalType": "string",
                    "name": "name",
                    "type": "string"
                }
            ],
            "name": "valid",
            "outputs": [
                {
                    "internalType": "bool",
                    "name": "",
                    "type": "bool"
                }
            ],
            "stateMutability": "pure",
            "type": "function"
        },
        {
            "inputs": [],
            "name": "version",
            "outputs": [
                {
                    "internalType": "string",
                    "name": "",
                    "type": "string"
                }
            ],
            "stateMutability": "pure",
            "type": "function"
        },
        {
            "inputs": [],
            "name": "withdraw",
            "outputs": [],
            "stateMutability": "nonpayable",
            "type": "function"
        }
    ],
    "bytecode": "0x60a06040523073ffffffffffffffffffffffffffffffffffffffff1660809073ffffffffffffffffffffffffffffffffffffffff1681525034801561004357600080fd5b50608051615a436200007c60003960008181610d0301528181610d920152818161107e0152818161110d01526111bd0152615a436000f3fe6080604052600436106101ee5760003560e01c80636352211e1161010d578063bf40fac1116100a0578063f2c298be1161006f578063f2c298be1461073a578063f2fde38b14610756578063f62d18881461077f578063fb825e5f1461079b578063fe2c6198146107c6576101ee565b8063bf40fac11461065a578063c1880a9814610697578063c87b56dd146106c0578063e985e9c5146106fd576101ee565b806395d89b41116100dc57806395d89b41146105a05780639791c097146105cb578063a22cb46514610608578063b88d4fde14610631576101ee565b80636352211e146104e457806370a0823114610521578063715018a61461055e5780638da5cb5b14610575576101ee565b80633659cfe6116101855780634f1ef286116101545780634f1ef2861461043557806352d1902d14610451578063541e771d1461047c57806354fd4d50146104b9576101ee565b80633659cfe61461038f5780633ccfd60b146103b857806342842e0e146103cf5780634622ab03146103f8576101ee565b806311dd8845116101c157806311dd8845146102c157806323b872dd146102fe57806326449235146103275780632d55143214610364576101ee565b806301ffc9a7146101f357806306fdde0314610230578063081812fc1461025b578063095ea7b314610298575b600080fd5b3480156101ff57600080fd5b5061021a60048036038101906102159190613a75565b610803565b6040516102279190613abd565b60405180910390f35b34801561023c57600080fd5b506102456108e5565b6040516102529190613b71565b60405180910390f35b34801561026757600080fd5b50610282600480360381019061027d9190613bc9565b610977565b60405161028f9190613c37565b60405180910390f35b3480156102a457600080fd5b506102bf60048036038101906102ba9190613c7e565b6109fc565b005b3480156102cd57600080fd5b506102e860048036038101906102e39190613d23565b610b14565b6040516102f59190613b71565b60405180910390f35b34801561030a57600080fd5b5061032560048036038101906103209190613d70565b610bc8565b005b34801561033357600080fd5b5061034e60048036038101906103499190613ef3565b610c28565b60405161035b9190613c37565b60405180910390f35b34801561037057600080fd5b50610379610c72565b6040516103869190613b71565b60405180910390f35b34801561039b57600080fd5b506103b660048036038101906103b19190613f3c565b610d01565b005b3480156103c457600080fd5b506103cd610e8a565b005b3480156103db57600080fd5b506103f660048036038101906103f19190613d70565b610fbb565b005b34801561040457600080fd5b5061041f600480360381019061041a9190613bc9565b610fdb565b60405161042c9190613b71565b60405180910390f35b61044f600480360381019061044a919061400a565b61107c565b005b34801561045d57600080fd5b506104666111b9565b604051610473919061407f565b60405180910390f35b34801561048857600080fd5b506104a3600480360381019061049e9190613ef3565b611272565b6040516104b09190613b71565b60405180910390f35b3480156104c557600080fd5b506104ce611329565b6040516104db9190613b71565b60405180910390f35b3480156104f057600080fd5b5061050b60048036038101906105069190613bc9565b611366565b6040516105189190613c37565b60405180910390f35b34801561052d57600080fd5b5061054860048036038101906105439190613f3c565b611418565b60405161055591906140a9565b60405180910390f35b34801561056a57600080fd5b506105736114d0565b005b34801561058157600080fd5b5061058a611558565b6040516105979190613c37565b60405180910390f35b3480156105ac57600080fd5b506105b5611582565b6040516105c29190613b71565b60405180910390f35b3480156105d757600080fd5b506105f260048036038101906105ed9190613d23565b611614565b6040516105ff9190613abd565b60405180910390f35b34801561061457600080fd5b5061062f600480360381019061062a91906140f0565b6116c8565b005b34801561063d57600080fd5b5061065860048036038101906106539190614130565b6116de565b005b34801561066657600080fd5b50610681600480360381019061067c9190613d23565b611740565b60405161068e9190613c37565b60405180910390f35b3480156106a357600080fd5b506106be60048036038101906106b991906141b3565b61178c565b005b3480156106cc57600080fd5b506106e760048036038101906106e29190613bc9565b611869565b6040516106f49190613b71565b60405180910390f35b34801561070957600080fd5b50610724600480360381019061071f9190614234565b6119bc565b6040516107319190613abd565b60405180910390f35b610754600480360381019061074f9190613d23565b611a51565b005b34801561076257600080fd5b5061077d60048036038101906107789190613f3c565b611cbe565b005b61079960048036038101906107949190613ef3565b611db6565b005b3480156107a757600080fd5b506107b0611f2f565b6040516107bd9190614380565b60405180910390f35b3480156107d257600080fd5b506107ed60048036038101906107e89190613d23565b612078565b6040516107fa91906140a9565b60405180910390f35b60007f80ac58cd000000000000000000000000000000000000000000000000000000007bffffffffffffffffffffffffffffffffffffffffffffffffffffffff1916827bffffffffffffffffffffffffffffffffffffffffffffffffffffffff191614806108ce57507f5b5e139f000000000000000000000000000000000000000000000000000000007bffffffffffffffffffffffffffffffffffffffffffffffffffffffff1916827bffffffffffffffffffffffffffffffffffffffffffffffffffffffff1916145b806108de57506108dd8261211e565b5b9050919050565b606060fb80546108f4906143d1565b80601f0160208091040260200160405190810160405280929190818152602001828054610920906143d1565b801561096d5780601f106109425761010080835404028352916020019161096d565b820191906000526020600020905b81548152906001019060200180831161095057829003601f168201915b5050505050905090565b600061098282612188565b6109c1576040517f08c379a00000000000000000000000000000000000000000000000000000000081526004016109b890614475565b60405180910390fd5b60ff600083815260200190815260200160002060009054906101000a900473ffffffffffffffffffffffffffffffffffffffff169050919050565b6000610a0782611366565b90508073ffffffffffffffffffffffffffffffffffffffff168373ffffffffffffffffffffffffffffffffffffffff161415610a78576040517f08c379a0000000000000000000000000000000000000000000000000000000008152600401610a6f90614507565b60405180910390fd5b8073ffffffffffffffffffffffffffffffffffffffff16610a976121f4565b73ffffffffffffffffffffffffffffffffffffffff161480610ac65750610ac581610ac06121f4565b6119bc565b5b610b05576040517f08c379a0000000000000000000000000000000000000000000000000000000008152600401610afc90614599565b60405180910390fd5b610b0f83836121fc565b505050565b60606101608383604051610b299291906145e9565b90815260200160405180910390208054610b42906143d1565b80601f0160208091040260200160405190810160405280929190818152602001828054610b6e906143d1565b8015610bbb5780601f10610b9057610100808354040283529160200191610bbb565b820191906000526020600020905b815481529060010190602001808311610b9e57829003601f168201915b5050505050905092915050565b610bd9610bd36121f4565b826122b5565b610c18576040517f08c379a0000000000000000000000000000000000000000000000000000000008152600401610c0f90614674565b60405180910390fd5b610c23838383612393565b505050565b61015f818051602081018201805184825260208301602085012081835280955050505050506000915054906101000a900473ffffffffffffffffffffffffffffffffffffffff1681565b6101628054610c80906143d1565b80601f0160208091040260200160405190810160405280929190818152602001828054610cac906143d1565b8015610cf95780601f10610cce57610100808354040283529160200191610cf9565b820191906000526020600020905b815481529060010190602001808311610cdc57829003601f168201915b505050505081565b7f000000000000000000000000000000000000000000000000000000000000000073ffffffffffffffffffffffffffffffffffffffff163073ffffffffffffffffffffffffffffffffffffffff161415610d90576040517f08c379a0000000000000000000000000000000000000000000000000000000008152600401610d8790614706565b60405180910390fd5b7f000000000000000000000000000000000000000000000000000000000000000073ffffffffffffffffffffffffffffffffffffffff16610dcf6125fa565b73ffffffffffffffffffffffffffffffffffffffff1614610e25576040517f08c379a0000000000000000000000000000000000000000000000000000000008152600401610e1c90614798565b60405180910390fd5b610e2e81612651565b610e8781600067ffffffffffffffff811115610e4d57610e4c613dc8565b5b6040519080825280601f01601f191660200182016040528015610e7f5781602001600182028036833780820191505090505b5060006126d0565b50565b610e926121f4565b73ffffffffffffffffffffffffffffffffffffffff16610eb0611558565b73ffffffffffffffffffffffffffffffffffffffff1614610f06576040517f08c379a0000000000000000000000000000000000000000000000000000000008152600401610efd90614804565b60405180910390fd5b600047905060003373ffffffffffffffffffffffffffffffffffffffff1682604051610f3190614855565b60006040518083038185875af1925050503d8060008114610f6e576040519150601f19603f3d011682016040523d82523d6000602084013e610f73565b606091505b5050905080610fb7576040517f08c379a0000000000000000000000000000000000000000000000000000000008152600401610fae906148b6565b60405180910390fd5b5050565b610fd6838383604051806020016040528060008152506116de565b505050565b6101616020528060005260406000206000915090508054610ffb906143d1565b80601f0160208091040260200160405190810160405280929190818152602001828054611027906143d1565b80156110745780601f1061104957610100808354040283529160200191611074565b820191906000526020600020905b81548152906001019060200180831161105757829003601f168201915b505050505081565b7f000000000000000000000000000000000000000000000000000000000000000073ffffffffffffffffffffffffffffffffffffffff163073ffffffffffffffffffffffffffffffffffffffff16141561110b576040517f08c379a000000000000000000000000000000000000000000000000000000000815260040161110290614706565b60405180910390fd5b7f000000000000000000000000000000000000000000000000000000000000000073ffffffffffffffffffffffffffffffffffffffff1661114a6125fa565b73ffffffffffffffffffffffffffffffffffffffff16146111a0576040517f08c379a000000000000000000000000000000000000000000000000000000000815260040161119790614798565b60405180910390fd5b6111a982612651565b6111b5828260016126d0565b5050565b60007f000000000000000000000000000000000000000000000000000000000000000073ffffffffffffffffffffffffffffffffffffffff163073ffffffffffffffffffffffffffffffffffffffff1614611249576040517f08c379a000000000000000000000000000000000000000000000000000000000815260040161124090614948565b60405180910390fd5b7f360894a13ba1a3210667c828492db98dca3e2076cc3735a920a3ca505d382bbc60001b905090565b6101608180516020810182018051848252602083016020850120818352809550505050505060009150905080546112a8906143d1565b80601f01602080910402602001604051908101604052809291908181526020018280546112d4906143d1565b80156113215780601f106112f657610100808354040283529160200191611321565b820191906000526020600020905b81548152906001019060200180831161130457829003601f168201915b505050505081565b60606040518060400160405280600b81526020017f446f6d61696e735f763121000000000000000000000000000000000000000000815250905090565b60008060fd600084815260200190815260200160002060009054906101000a900473ffffffffffffffffffffffffffffffffffffffff169050600073ffffffffffffffffffffffffffffffffffffffff168173ffffffffffffffffffffffffffffffffffffffff16141561140f576040517f08c379a0000000000000000000000000000000000000000000000000000000008152600401611406906149da565b60405180910390fd5b80915050919050565b60008073ffffffffffffffffffffffffffffffffffffffff168273ffffffffffffffffffffffffffffffffffffffff161415611489576040517f08c379a000000000000000000000000000000000000000000000000000000000815260040161148090614a6c565b60405180910390fd5b60fe60008373ffffffffffffffffffffffffffffffffffffffff1673ffffffffffffffffffffffffffffffffffffffff168152602001908152602001600020549050919050565b6114d86121f4565b73ffffffffffffffffffffffffffffffffffffffff166114f6611558565b73ffffffffffffffffffffffffffffffffffffffff161461154c576040517f08c379a000000000000000000000000000000000000000000000000000000000815260040161154390614804565b60405180910390fd5b611556600061283e565b565b6000603360009054906101000a900473ffffffffffffffffffffffffffffffffffffffff16905090565b606060fc8054611591906143d1565b80601f01602080910402602001604051908101604052809291908181526020018280546115bd906143d1565b801561160a5780601f106115df5761010080835404028352916020019161160a565b820191906000526020600020905b8154815290600101906020018083116115ed57829003601f168201915b5050505050905090565b6000600361166584848080601f016020809104026020016040519081016040528093929190818152602001838380828437600081840152601f19601f82011690508083019250505050505050612904565b101580156116c05750600a6116bd84848080601f016020809104026020016040519081016040528093929190818152602001838380828437600081840152601f19601f82011690508083019250505050505050612904565b11155b905092915050565b6116da6116d36121f4565b8383612ab9565b5050565b6116ef6116e96121f4565b836122b5565b61172e576040517f08c379a000000000000000000000000000000000000000000000000000000000815260040161172590614674565b60405180910390fd5b61173a84848484612c27565b50505050565b600061015f83836040516117559291906145e9565b908152602001604051809103902060009054906101000a900473ffffffffffffffffffffffffffffffffffffffff16905092915050565b61015f848460405161179f9291906145e9565b908152602001604051809103902060009054906101000a900473ffffffffffffffffffffffffffffffffffffffff1673ffffffffffffffffffffffffffffffffffffffff163373ffffffffffffffffffffffffffffffffffffffff1614611832576040517f82b4290000000000000000000000000000000000000000000000000000000000815260040160405180910390fd5b818161016086866040516118479291906145e9565b908152602001604051809103902091906118629291906138e0565b5050505050565b606061187482612188565b6118b3576040517f08c379a00000000000000000000000000000000000000000000000000000000081526004016118aa90614afe565b60405180910390fd5b600061012d600084815260200190815260200160002080546118d4906143d1565b80601f0160208091040260200160405190810160405280929190818152602001828054611900906143d1565b801561194d5780601f106119225761010080835404028352916020019161194d565b820191906000526020600020905b81548152906001019060200180831161193057829003601f168201915b50505050509050600061195e612c83565b90506000815114156119745781925050506119b7565b6000825111156119a9578082604051602001611991929190614b4f565b604051602081830303815290604052925050506119b7565b6119b284612c9a565b925050505b919050565b600061010060008473ffffffffffffffffffffffffffffffffffffffff1673ffffffffffffffffffffffffffffffffffffffff16815260200190815260200160002060008373ffffffffffffffffffffffffffffffffffffffff1673ffffffffffffffffffffffffffffffffffffffff16815260200190815260200160002060009054906101000a900460ff16905092915050565b600073ffffffffffffffffffffffffffffffffffffffff1661015f8383604051611a7c9291906145e9565b908152602001604051809103902060009054906101000a900473ffffffffffffffffffffffffffffffffffffffff1673ffffffffffffffffffffffffffffffffffffffff1614611acb57600080fd5b6000611ad78383612078565b905080341015611b1c576040517f08c379a0000000000000000000000000000000000000000000000000000000008152600401611b1390614bbf565b60405180910390fd5b6000611b29610163612d41565b90506000611b7a85858080601f016020809104026020016040519081016040528093929190818152602001838380828437600081840152601f19601f82011690508083019250505050505050612904565b90506000611b8782612d4f565b9050600073__$97079cfe4383994fa80ce1a1ed627a5007$__6370266e718888610162866040518563ffffffff1660e01b8152600401611bca9493929190614ceb565b600060405180830381865af4158015611be7573d6000803e3d6000fd5b505050506040513d6000823e3d601f19601f82011682018060405250810190611c109190614da9565b9050611c1c3385612eb0565b611c268482612ece565b3361015f8888604051611c3a9291906145e9565b908152602001604051809103902060006101000a81548173ffffffffffffffffffffffffffffffffffffffff021916908373ffffffffffffffffffffffffffffffffffffffff160217905550868661016160008781526020019081526020016000209190611ca99291906138e0565b50611cb5610163612f43565b50505050505050565b611cc66121f4565b73ffffffffffffffffffffffffffffffffffffffff16611ce4611558565b73ffffffffffffffffffffffffffffffffffffffff1614611d3a576040517f08c379a0000000000000000000000000000000000000000000000000000000008152600401611d3190614804565b60405180910390fd5b600073ffffffffffffffffffffffffffffffffffffffff168173ffffffffffffffffffffffffffffffffffffffff161415611daa576040517f08c379a0000000000000000000000000000000000000000000000000000000008152600401611da190614e64565b60405180910390fd5b611db38161283e565b50565b600060019054906101000a900460ff16611dde5760008054906101000a900460ff1615611de7565b611de6612f59565b5b611e26576040517f08c379a0000000000000000000000000000000000000000000000000000000008152600401611e1d90614ef6565b60405180910390fd5b60008060019054906101000a900460ff161590508015611e76576001600060016101000a81548160ff02191690831515021790555060016000806101000a81548160ff0219169083151502179055505b611e7e612f6a565b611ef26040518060400160405280601381526020017f506962626c65204e616d652053657276696365000000000000000000000000008152506040518060400160405280600381526020017f504e530000000000000000000000000000000000000000000000000000000000815250612fc3565b816101629080519060200190611f09929190613966565b508015611f2b5760008060016101000a81548160ff0219169083151502179055505b5050565b60606000611f3e610163612d41565b67ffffffffffffffff811115611f5757611f56613dc8565b5b604051908082528060200260200182016040528015611f8a57816020015b6060815260200190600190039081611f755790505b50905060005b611f9b610163612d41565b8110156120705761016160008281526020019081526020016000208054611fc1906143d1565b80601f0160208091040260200160405190810160405280929190818152602001828054611fed906143d1565b801561203a5780601f1061200f5761010080835404028352916020019161203a565b820191906000526020600020905b81548152906001019060200180831161201d57829003601f168201915b505050505082828151811061205257612051614f16565b5b6020026020010181905250808061206890614f74565b915050611f90565b508091505090565b6000806120c884848080601f016020809104026020016040519081016040528093929190818152602001838380828437600081840152601f19601f82011690508083019250505050505050612904565b9050600081116120d757600080fd5b60038114156120f157670429d069189e0000915050612118565b600481141561210b576702c68af0bb140000915050612118565b67016345785d8a00009150505b92915050565b60007f01ffc9a7000000000000000000000000000000000000000000000000000000007bffffffffffffffffffffffffffffffffffffffffffffffffffffffff1916827bffffffffffffffffffffffffffffffffffffffffffffffffffffffff1916149050919050565b60008073ffffffffffffffffffffffffffffffffffffffff1660fd600084815260200190815260200160002060009054906101000a900473ffffffffffffffffffffffffffffffffffffffff1673ffffffffffffffffffffffffffffffffffffffff1614159050919050565b600033905090565b8160ff600083815260200190815260200160002060006101000a81548173ffffffffffffffffffffffffffffffffffffffff021916908373ffffffffffffffffffffffffffffffffffffffff160217905550808273ffffffffffffffffffffffffffffffffffffffff1661226f83611366565b73ffffffffffffffffffffffffffffffffffffffff167f8c5be1e5ebec7d5bd14f71427d1e84f3dd0314c0f7b2291e5b200ac8c7c3b92560405160405180910390a45050565b60006122c082612188565b6122ff576040517f08c379a00000000000000000000000000000000000000000000000000000000081526004016122f69061502f565b60405180910390fd5b600061230a83611366565b90508073ffffffffffffffffffffffffffffffffffffffff168473ffffffffffffffffffffffffffffffffffffffff16148061237957508373ffffffffffffffffffffffffffffffffffffffff1661236184610977565b73ffffffffffffffffffffffffffffffffffffffff16145b8061238a575061238981856119bc565b5b91505092915050565b8273ffffffffffffffffffffffffffffffffffffffff166123b382611366565b73ffffffffffffffffffffffffffffffffffffffff1614612409576040517f08c379a0000000000000000000000000000000000000000000000000000000008152600401612400906150c1565b60405180910390fd5b600073ffffffffffffffffffffffffffffffffffffffff168273ffffffffffffffffffffffffffffffffffffffff161415612479576040517f08c379a000000000000000000000000000000000000000000000000000000000815260040161247090615153565b60405180910390fd5b612484838383613020565b61248f6000826121fc565b600160fe60008573ffffffffffffffffffffffffffffffffffffffff1673ffffffffffffffffffffffffffffffffffffffff16815260200190815260200160002060008282546124df9190615173565b92505081905550600160fe60008473ffffffffffffffffffffffffffffffffffffffff1673ffffffffffffffffffffffffffffffffffffffff168152602001908152602001600020600082825461253691906151a7565b925050819055508160fd600083815260200190815260200160002060006101000a81548173ffffffffffffffffffffffffffffffffffffffff021916908373ffffffffffffffffffffffffffffffffffffffff160217905550808273ffffffffffffffffffffffffffffffffffffffff168473ffffffffffffffffffffffffffffffffffffffff167fddf252ad1be2c89b69c2b068fc378daa952ba7f163c4a11628f55a4df523b3ef60405160405180910390a46125f5838383613025565b505050565b60006126287f360894a13ba1a3210667c828492db98dca3e2076cc3735a920a3ca505d382bbc60001b61302a565b60000160009054906101000a900473ffffffffffffffffffffffffffffffffffffffff16905090565b6126596121f4565b73ffffffffffffffffffffffffffffffffffffffff16612677611558565b73ffffffffffffffffffffffffffffffffffffffff16146126cd576040517f08c379a00000000000000000000000000000000000000000000000000000000081526004016126c490614804565b60405180910390fd5b50565b6126fc7f4910fdfa16fed3260ed0e7147f7cc6da11a60208b5b9406d12a635614ffd914360001b613034565b60000160009054906101000a900460ff16156127205761271b8361303e565b612839565b8273ffffffffffffffffffffffffffffffffffffffff166352d1902d6040518163ffffffff1660e01b8152600401602060405180830381865afa92505050801561278857506040513d601f19601f820116820180604052508101906127859190615229565b60015b6127c7576040517f08c379a00000000000000000000000000000000000000000000000000000000081526004016127be906152c8565b60405180910390fd5b7f360894a13ba1a3210667c828492db98dca3e2076cc3735a920a3ca505d382bbc60001b811461282c576040517f08c379a00000000000000000000000000000000000000000000000000000000081526004016128239061535a565b60405180910390fd5b506128388383836130f7565b5b505050565b6000603360009054906101000a900473ffffffffffffffffffffffffffffffffffffffff16905081603360006101000a81548173ffffffffffffffffffffffffffffffffffffffff021916908373ffffffffffffffffffffffffffffffffffffffff1602179055508173ffffffffffffffffffffffffffffffffffffffff168173ffffffffffffffffffffffffffffffffffffffff167f8be0079c531659141344cd1fd0a4f28419497f9722a3daafe3b4186f6b6457e060405160405180910390a35050565b60008060008084519050600092505b80821015612aae5760008583815181106129305761292f614f16565b5b602001015160f81c60f81b9050608060f81b817effffffffffffffffffffffffffffffffffffffffffffffffffffffffffffff1916101561297f5760018361297891906151a7565b9250612a9a565b60e060f81b817effffffffffffffffffffffffffffffffffffffffffffffffffffffffffffff191610156129c1576002836129ba91906151a7565b9250612a99565b60f060f81b817effffffffffffffffffffffffffffffffffffffffffffffffffffffffffffff19161015612a03576003836129fc91906151a7565b9250612a98565b60f8801b817effffffffffffffffffffffffffffffffffffffffffffffffffffffffffffff19161015612a4457600483612a3d91906151a7565b9250612a97565b60fc60f81b817effffffffffffffffffffffffffffffffffffffffffffffffffffffffffffff19161015612a8657600583612a7f91906151a7565b9250612a96565b600683612a9391906151a7565b92505b5b5b5b5b508280612aa690614f74565b935050612913565b829350505050919050565b8173ffffffffffffffffffffffffffffffffffffffff168373ffffffffffffffffffffffffffffffffffffffff161415612b28576040517f08c379a0000000000000000000000000000000000000000000000000000000008152600401612b1f906153c6565b60405180910390fd5b8061010060008573ffffffffffffffffffffffffffffffffffffffff1673ffffffffffffffffffffffffffffffffffffffff16815260200190815260200160002060008473ffffffffffffffffffffffffffffffffffffffff1673ffffffffffffffffffffffffffffffffffffffff16815260200190815260200160002060006101000a81548160ff0219169083151502179055508173ffffffffffffffffffffffffffffffffffffffff168373ffffffffffffffffffffffffffffffffffffffff167f17307eab39ab6107e8899845ad3d59bd9653f200f220920489ca2b5937696c3183604051612c1a9190613abd565b60405180910390a3505050565b612c32848484612393565b612c3e84848484613123565b612c7d576040517f08c379a0000000000000000000000000000000000000000000000000000000008152600401612c7490615458565b60405180910390fd5b50505050565b606060405180602001604052806000815250905090565b6060612ca582612188565b612ce4576040517f08c379a0000000000000000000000000000000000000000000000000000000008152600401612cdb906154ea565b60405180910390fd5b6000612cee612c83565b90506000815111612d0e5760405180602001604052806000815250612d39565b80612d18846132ab565b604051602001612d29929190614b4f565b6040516020818303038152906040525b915050919050565b600081600001549050919050565b60606000821415612d97576040518060400160405280600181526020017f30000000000000000000000000000000000000000000000000000000000000008152509050612eab565b600082905060005b60008214612dc9578080612db290614f74565b915050600a82612dc29190615539565b9150612d9f565b60008167ffffffffffffffff811115612de557612de4613dc8565b5b6040519080825280601f01601f191660200182016040528015612e175781602001600182028036833780820191505090505b5090505b60008514612ea457600182612e309190615173565b9150600a85612e3f919061556a565b6030612e4b91906151a7565b60f81b818381518110612e6157612e60614f16565b5b60200101907effffffffffffffffffffffffffffffffffffffffffffffffffffffffffffff1916908160001a905350600a85612e9d9190615539565b9450612e1b565b8093505050505b919050565b612eca82826040518060200160405280600081525061340c565b5050565b612ed782612188565b612f16576040517f08c379a0000000000000000000000000000000000000000000000000000000008152600401612f0d9061560d565b60405180910390fd5b8061012d60008481526020019081526020016000209080519060200190612f3e929190613966565b505050565b6001816000016000828254019250508190555050565b6000612f6430613467565b15905090565b600060019054906101000a900460ff16612fb9576040517f08c379a0000000000000000000000000000000000000000000000000000000008152600401612fb09061569f565b60405180910390fd5b612fc161348a565b565b600060019054906101000a900460ff16613012576040517f08c379a00000000000000000000000000000000000000000000000000000000081526004016130099061569f565b60405180910390fd5b61301c82826134eb565b5050565b505050565b505050565b6000819050919050565b6000819050919050565b61304781613467565b613086576040517f08c379a000000000000000000000000000000000000000000000000000000000815260040161307d90615731565b60405180910390fd5b806130b37f360894a13ba1a3210667c828492db98dca3e2076cc3735a920a3ca505d382bbc60001b61302a565b60000160006101000a81548173ffffffffffffffffffffffffffffffffffffffff021916908373ffffffffffffffffffffffffffffffffffffffff16021790555050565b6131008361356c565b60008251118061310d5750805b1561311e5761311c83836135bb565b505b505050565b60006131448473ffffffffffffffffffffffffffffffffffffffff16613467565b1561329e578373ffffffffffffffffffffffffffffffffffffffff1663150b7a0261316d6121f4565b8786866040518563ffffffff1660e01b815260040161318f94939291906157a6565b6020604051808303816000875af19250505080156131cb57506040513d601f19601f820116820180604052508101906131c89190615807565b60015b61324e573d80600081146131fb576040519150601f19603f3d011682016040523d82523d6000602084013e613200565b606091505b50600081511415613246576040517f08c379a000000000000000000000000000000000000000000000000000000000815260040161323d90615458565b60405180910390fd5b805181602001fd5b63150b7a0260e01b7bffffffffffffffffffffffffffffffffffffffffffffffffffffffff1916817bffffffffffffffffffffffffffffffffffffffffffffffffffffffff1916149150506132a3565b600190505b949350505050565b606060008214156132f3576040518060400160405280600181526020017f30000000000000000000000000000000000000000000000000000000000000008152509050613407565b600082905060005b6000821461332557808061330e90614f74565b915050600a8261331e9190615539565b91506132fb565b60008167ffffffffffffffff81111561334157613340613dc8565b5b6040519080825280601f01601f1916602001820160405280156133735781602001600182028036833780820191505090505b5090505b600085146134005760018261338c9190615173565b9150600a8561339b919061556a565b60306133a791906151a7565b60f81b8183815181106133bd576133bc614f16565b5b60200101907effffffffffffffffffffffffffffffffffffffffffffffffffffffffffffff1916908160001a905350600a856133f99190615539565b9450613377565b8093505050505b919050565b613416838361369f565b6134236000848484613123565b613462576040517f08c379a000000000000000000000000000000000000000000000000000000000815260040161345990615458565b60405180910390fd5b505050565b6000808273ffffffffffffffffffffffffffffffffffffffff163b119050919050565b600060019054906101000a900460ff166134d9576040517f08c379a00000000000000000000000000000000000000000000000000000000081526004016134d09061569f565b60405180910390fd5b6134e96134e46121f4565b61283e565b565b600060019054906101000a900460ff1661353a576040517f08c379a00000000000000000000000000000000000000000000000000000000081526004016135319061569f565b60405180910390fd5b8160fb9080519060200190613550929190613966565b508060fc9080519060200190613567929190613966565b505050565b6135758161303e565b8073ffffffffffffffffffffffffffffffffffffffff167fbc7cd75a20ee27fd9adebab32041f755214dbc6bffa90cc0225b39da2e5c2d3b60405160405180910390a250565b60606135c683613467565b613605576040517f08c379a00000000000000000000000000000000000000000000000000000000081526004016135fc906158a6565b60405180910390fd5b6000808473ffffffffffffffffffffffffffffffffffffffff168460405161362d91906158f7565b600060405180830381855af49150503d8060008114613668576040519150601f19603f3d011682016040523d82523d6000602084013e61366d565b606091505b509150915061369582826040518060600160405280602781526020016159e760279139613879565b9250505092915050565b600073ffffffffffffffffffffffffffffffffffffffff168273ffffffffffffffffffffffffffffffffffffffff16141561370f576040517f08c379a00000000000000000000000000000000000000000000000000000000081526004016137069061595a565b60405180910390fd5b61371881612188565b15613758576040517f08c379a000000000000000000000000000000000000000000000000000000000815260040161374f906159c6565b60405180910390fd5b61376460008383613020565b600160fe60008473ffffffffffffffffffffffffffffffffffffffff1673ffffffffffffffffffffffffffffffffffffffff16815260200190815260200160002060008282546137b491906151a7565b925050819055508160fd600083815260200190815260200160002060006101000a81548173ffffffffffffffffffffffffffffffffffffffff021916908373ffffffffffffffffffffffffffffffffffffffff160217905550808273ffffffffffffffffffffffffffffffffffffffff16600073ffffffffffffffffffffffffffffffffffffffff167fddf252ad1be2c89b69c2b068fc378daa952ba7f163c4a11628f55a4df523b3ef60405160405180910390a461387560008383613025565b5050565b60608315613889578290506138d9565b60008351111561389c5782518084602001fd5b816040517f08c379a00000000000000000000000000000000000000000000000000000000081526004016138d09190613b71565b60405180910390fd5b9392505050565b8280546138ec906143d1565b90600052602060002090601f01602090048101928261390e5760008555613955565b82601f1061392757803560ff1916838001178555613955565b82800160010185558215613955579182015b82811115613954578235825591602001919060010190613939565b5b50905061396291906139ec565b5090565b828054613972906143d1565b90600052602060002090601f01602090048101928261399457600085556139db565b82601f106139ad57805160ff19168380011785556139db565b828001600101855582156139db579182015b828111156139da5782518255916020019190600101906139bf565b5b5090506139e891906139ec565b5090565b5b80821115613a055760008160009055506001016139ed565b5090565b6000604051905090565b600080fd5b600080fd5b60007fffffffff0000000000000000000000000000000000000000000000000000000082169050919050565b613a5281613a1d565b8114613a5d57600080fd5b50565b600081359050613a6f81613a49565b92915050565b600060208284031215613a8b57613a8a613a13565b5b6000613a9984828501613a60565b91505092915050565b60008115159050919050565b613ab781613aa2565b82525050565b6000602082019050613ad26000830184613aae565b92915050565b600081519050919050565b600082825260208201905092915050565b60005b83811015613b12578082015181840152602081019050613af7565b83811115613b21576000848401525b50505050565b6000601f19601f8301169050919050565b6000613b4382613ad8565b613b4d8185613ae3565b9350613b5d818560208601613af4565b613b6681613b27565b840191505092915050565b60006020820190508181036000830152613b8b8184613b38565b905092915050565b6000819050919050565b613ba681613b93565b8114613bb157600080fd5b50565b600081359050613bc381613b9d565b92915050565b600060208284031215613bdf57613bde613a13565b5b6000613bed84828501613bb4565b91505092915050565b600073ffffffffffffffffffffffffffffffffffffffff82169050919050565b6000613c2182613bf6565b9050919050565b613c3181613c16565b82525050565b6000602082019050613c4c6000830184613c28565b92915050565b613c5b81613c16565b8114613c6657600080fd5b50565b600081359050613c7881613c52565b92915050565b60008060408385031215613c9557613c94613a13565b5b6000613ca385828601613c69565b9250506020613cb485828601613bb4565b9150509250929050565b600080fd5b600080fd5b600080fd5b60008083601f840112613ce357613ce2613cbe565b5b8235905067ffffffffffffffff811115613d0057613cff613cc3565b5b602083019150836001820283011115613d1c57613d1b613cc8565b5b9250929050565b60008060208385031215613d3a57613d39613a13565b5b600083013567ffffffffffffffff811115613d5857613d57613a18565b5b613d6485828601613ccd565b92509250509250929050565b600080600060608486031215613d8957613d88613a13565b5b6000613d9786828701613c69565b9350506020613da886828701613c69565b9250506040613db986828701613bb4565b9150509250925092565b600080fd5b7f4e487b7100000000000000000000000000000000000000000000000000000000600052604160045260246000fd5b613e0082613b27565b810181811067ffffffffffffffff82111715613e1f57613e1e613dc8565b5b80604052505050565b6000613e32613a09565b9050613e3e8282613df7565b919050565b600067ffffffffffffffff821115613e5e57613e5d613dc8565b5b613e6782613b27565b9050602081019050919050565b82818337600083830152505050565b6000613e96613e9184613e43565b613e28565b905082815260208101848484011115613eb257613eb1613dc3565b5b613ebd848285613e74565b509392505050565b600082601f830112613eda57613ed9613cbe565b5b8135613eea848260208601613e83565b91505092915050565b600060208284031215613f0957613f08613a13565b5b600082013567ffffffffffffffff811115613f2757613f26613a18565b5b613f3384828501613ec5565b91505092915050565b600060208284031215613f5257613f51613a13565b5b6000613f6084828501613c69565b91505092915050565b600067ffffffffffffffff821115613f8457613f83613dc8565b5b613f8d82613b27565b9050602081019050919050565b6000613fad613fa884613f69565b613e28565b905082815260208101848484011115613fc957613fc8613dc3565b5b613fd4848285613e74565b509392505050565b600082601f830112613ff157613ff0613cbe565b5b8135614001848260208601613f9a565b91505092915050565b6000806040838503121561402157614020613a13565b5b600061402f85828601613c69565b925050602083013567ffffffffffffffff8111156140505761404f613a18565b5b61405c85828601613fdc565b9150509250929050565b6000819050919050565b61407981614066565b82525050565b60006020820190506140946000830184614070565b92915050565b6140a381613b93565b82525050565b60006020820190506140be600083018461409a565b92915050565b6140cd81613aa2565b81146140d857600080fd5b50565b6000813590506140ea816140c4565b92915050565b6000806040838503121561410757614106613a13565b5b600061411585828601613c69565b9250506020614126858286016140db565b9150509250929050565b6000806000806080858703121561414a57614149613a13565b5b600061415887828801613c69565b945050602061416987828801613c69565b935050604061417a87828801613bb4565b925050606085013567ffffffffffffffff81111561419b5761419a613a18565b5b6141a787828801613fdc565b91505092959194509250565b600080600080604085870312156141cd576141cc613a13565b5b600085013567ffffffffffffffff8111156141eb576141ea613a18565b5b6141f787828801613ccd565b9450945050602085013567ffffffffffffffff81111561421a57614219613a18565b5b61422687828801613ccd565b925092505092959194509250565b6000806040838503121561424b5761424a613a13565b5b600061425985828601613c69565b925050602061426a85828601613c69565b9150509250929050565b600081519050919050565b600082825260208201905092915050565b6000819050602082019050919050565b600082825260208201905092915050565b60006142bc82613ad8565b6142c681856142a0565b93506142d6818560208601613af4565b6142df81613b27565b840191505092915050565b60006142f683836142b1565b905092915050565b6000602082019050919050565b600061431682614274565b614320818561427f565b93508360208202850161433285614290565b8060005b8581101561436e578484038952815161434f85826142ea565b945061435a836142fe565b925060208a01995050600181019050614336565b50829750879550505050505092915050565b6000602082019050818103600083015261439a818461430b565b905092915050565b7f4e487b7100000000000000000000000000000000000000000000000000000000600052602260045260246000fd5b600060028204905060018216806143e957607f821691505b602082108114156143fd576143fc6143a2565b5b50919050565b7f4552433732313a20617070726f76656420717565727920666f72206e6f6e657860008201527f697374656e7420746f6b656e0000000000000000000000000000000000000000602082015250565b600061445f602c83613ae3565b915061446a82614403565b604082019050919050565b6000602082019050818103600083015261448e81614452565b9050919050565b7f4552433732313a20617070726f76616c20746f2063757272656e74206f776e6560008201527f7200000000000000000000000000000000000000000000000000000000000000602082015250565b60006144f1602183613ae3565b91506144fc82614495565b604082019050919050565b60006020820190508181036000830152614520816144e4565b9050919050565b7f4552433732313a20617070726f76652063616c6c6572206973206e6f74206f7760008201527f6e6572206e6f7220617070726f76656420666f7220616c6c0000000000000000602082015250565b6000614583603883613ae3565b915061458e82614527565b604082019050919050565b600060208201905081810360008301526145b281614576565b9050919050565b600081905092915050565b60006145d083856145b9565b93506145dd838584613e74565b82840190509392505050565b60006145f68284866145c4565b91508190509392505050565b7f4552433732313a207472616e736665722063616c6c6572206973206e6f74206f60008201527f776e6572206e6f7220617070726f766564000000000000000000000000000000602082015250565b600061465e603183613ae3565b915061466982614602565b604082019050919050565b6000602082019050818103600083015261468d81614651565b9050919050565b7f46756e6374696f6e206d7573742062652063616c6c6564207468726f7567682060008201527f64656c656761746563616c6c0000000000000000000000000000000000000000602082015250565b60006146f0602c83613ae3565b91506146fb82614694565b604082019050919050565b6000602082019050818103600083015261471f816146e3565b9050919050565b7f46756e6374696f6e206d7573742062652063616c6c6564207468726f7567682060008201527f6163746976652070726f78790000000000000000000000000000000000000000602082015250565b6000614782602c83613ae3565b915061478d82614726565b604082019050919050565b600060208201905081810360008301526147b181614775565b9050919050565b7f4f776e61626c653a2063616c6c6572206973206e6f7420746865206f776e6572600082015250565b60006147ee602083613ae3565b91506147f9826147b8565b602082019050919050565b6000602082019050818103600083015261481d816147e1565b9050919050565b600081905092915050565b50565b600061483f600083614824565b915061484a8261482f565b600082019050919050565b600061486082614832565b9150819050919050565b7f5769746864726177204661696c00000000000000000000000000000000000000600082015250565b60006148a0600d83613ae3565b91506148ab8261486a565b602082019050919050565b600060208201905081810360008301526148cf81614893565b9050919050565b7f555550535570677261646561626c653a206d757374206e6f742062652063616c60008201527f6c6564207468726f7567682064656c656761746563616c6c0000000000000000602082015250565b6000614932603883613ae3565b915061493d826148d6565b604082019050919050565b6000602082019050818103600083015261496181614925565b9050919050565b7f4552433732313a206f776e657220717565727920666f72206e6f6e657869737460008201527f656e7420746f6b656e0000000000000000000000000000000000000000000000602082015250565b60006149c4602983613ae3565b91506149cf82614968565b604082019050919050565b600060208201905081810360008301526149f3816149b7565b9050919050565b7f4552433732313a2062616c616e636520717565727920666f7220746865207a6560008201527f726f206164647265737300000000000000000000000000000000000000000000602082015250565b6000614a56602a83613ae3565b9150614a61826149fa565b604082019050919050565b60006020820190508181036000830152614a8581614a49565b9050919050565b7f45524337323155524953746f726167653a2055524920717565727920666f722060008201527f6e6f6e6578697374656e7420746f6b656e000000000000000000000000000000602082015250565b6000614ae8603183613ae3565b9150614af382614a8c565b604082019050919050565b60006020820190508181036000830152614b1781614adb565b9050919050565b6000614b2982613ad8565b614b3381856145b9565b9350614b43818560208601613af4565b80840191505092915050565b6000614b5b8285614b1e565b9150614b678284614b1e565b91508190509392505050565b7f4e6f7420656e6f756768204d6174696300000000000000000000000000000000600082015250565b6000614ba9601083613ae3565b9150614bb482614b73565b602082019050919050565b60006020820190508181036000830152614bd881614b9c565b9050919050565b600082825260208201905092915050565b6000614bfc8385614bdf565b9350614c09838584613e74565b614c1283613b27565b840190509392505050565b60008190508160005260206000209050919050565b60008154614c3f816143d1565b614c498186614bdf565b94506001821660008114614c645760018114614c7657614ca9565b60ff1983168652602086019350614ca9565b614c7f85614c1d565b60005b83811015614ca157815481890152600182019150602081019050614c82565b808801955050505b50505092915050565b6000614cbd82613ad8565b614cc78185614bdf565b9350614cd7818560208601613af4565b614ce081613b27565b840191505092915050565b60006060820190508181036000830152614d06818688614bf0565b90508181036020830152614d1a8185614c32565b90508181036040830152614d2e8184614cb2565b905095945050505050565b6000614d4c614d4784613e43565b613e28565b905082815260208101848484011115614d6857614d67613dc3565b5b614d73848285613af4565b509392505050565b600082601f830112614d9057614d8f613cbe565b5b8151614da0848260208601614d39565b91505092915050565b600060208284031215614dbf57614dbe613a13565b5b600082015167ffffffffffffffff811115614ddd57614ddc613a18565b5b614de984828501614d7b565b91505092915050565b7f4f776e61626c653a206e6577206f776e657220697320746865207a65726f206160008201527f6464726573730000000000000000000000000000000000000000000000000000602082015250565b6000614e4e602683613ae3565b9150614e5982614df2565b604082019050919050565b60006020820190508181036000830152614e7d81614e41565b9050919050565b7f496e697469616c697a61626c653a20636f6e747261637420697320616c72656160008201527f647920696e697469616c697a6564000000000000000000000000000000000000602082015250565b6000614ee0602e83613ae3565b9150614eeb82614e84565b604082019050919050565b60006020820190508181036000830152614f0f81614ed3565b9050919050565b7f4e487b7100000000000000000000000000000000000000000000000000000000600052603260045260246000fd5b7f4e487b7100000000000000000000000000000000000000000000000000000000600052601160045260246000fd5b6000614f7f82613b93565b91507fffffffffffffffffffffffffffffffffffffffffffffffffffffffffffffffff821415614fb257614fb1614f45565b5b600182019050919050565b7f4552433732313a206f70657261746f7220717565727920666f72206e6f6e657860008201527f697374656e7420746f6b656e0000000000000000000000000000000000000000602082015250565b6000615019602c83613ae3565b915061502482614fbd565b604082019050919050565b600060208201905081810360008301526150488161500c565b9050919050565b7f4552433732313a207472616e736665722066726f6d20696e636f72726563742060008201527f6f776e6572000000000000000000000000000000000000000000000000000000602082015250565b60006150ab602583613ae3565b91506150b68261504f565b604082019050919050565b600060208201905081810360008301526150da8161509e565b9050919050565b7f4552433732313a207472616e7366657220746f20746865207a65726f2061646460008201527f7265737300000000000000000000000000000000000000000000000000000000602082015250565b600061513d602483613ae3565b9150615148826150e1565b604082019050919050565b6000602082019050818103600083015261516c81615130565b9050919050565b600061517e82613b93565b915061518983613b93565b92508282101561519c5761519b614f45565b5b828203905092915050565b60006151b282613b93565b91506151bd83613b93565b9250827fffffffffffffffffffffffffffffffffffffffffffffffffffffffffffffffff038211156151f2576151f1614f45565b5b828201905092915050565b61520681614066565b811461521157600080fd5b50565b600081519050615223816151fd565b92915050565b60006020828403121561523f5761523e613a13565b5b600061524d84828501615214565b91505092915050565b7f45524331393637557067726164653a206e657720696d706c656d656e7461746960008201527f6f6e206973206e6f742055555053000000000000000000000000000000000000602082015250565b60006152b2602e83613ae3565b91506152bd82615256565b604082019050919050565b600060208201905081810360008301526152e1816152a5565b9050919050565b7f45524331393637557067726164653a20756e737570706f727465642070726f7860008201527f6961626c65555549440000000000000000000000000000000000000000000000602082015250565b6000615344602983613ae3565b915061534f826152e8565b604082019050919050565b6000602082019050818103600083015261537381615337565b9050919050565b7f4552433732313a20617070726f766520746f2063616c6c657200000000000000600082015250565b60006153b0601983613ae3565b91506153bb8261537a565b602082019050919050565b600060208201905081810360008301526153df816153a3565b9050919050565b7f4552433732313a207472616e7366657220746f206e6f6e20455243373231526560008201527f63656976657220696d706c656d656e7465720000000000000000000000000000602082015250565b6000615442603283613ae3565b915061544d826153e6565b604082019050919050565b6000602082019050818103600083015261547181615435565b9050919050565b7f4552433732314d657461646174613a2055524920717565727920666f72206e6f60008201527f6e6578697374656e7420746f6b656e0000000000000000000000000000000000602082015250565b60006154d4602f83613ae3565b91506154df82615478565b604082019050919050565b60006020820190508181036000830152615503816154c7565b9050919050565b7f4e487b7100000000000000000000000000000000000000000000000000000000600052601260045260246000fd5b600061554482613b93565b915061554f83613b93565b92508261555f5761555e61550a565b5b828204905092915050565b600061557582613b93565b915061558083613b93565b9250826155905761558f61550a565b5b828206905092915050565b7f45524337323155524953746f726167653a2055524920736574206f66206e6f6e60008201527f6578697374656e7420746f6b656e000000000000000000000000000000000000602082015250565b60006155f7602e83613ae3565b91506156028261559b565b604082019050919050565b60006020820190508181036000830152615626816155ea565b9050919050565b7f496e697469616c697a61626c653a20636f6e7472616374206973206e6f74206960008201527f6e697469616c697a696e67000000000000000000000000000000000000000000602082015250565b6000615689602b83613ae3565b91506156948261562d565b604082019050919050565b600060208201905081810360008301526156b88161567c565b9050919050565b7f455243313936373a206e657720696d706c656d656e746174696f6e206973206e60008201527f6f74206120636f6e747261637400000000000000000000000000000000000000602082015250565b600061571b602d83613ae3565b9150615726826156bf565b604082019050919050565b6000602082019050818103600083015261574a8161570e565b9050919050565b600081519050919050565b600082825260208201905092915050565b600061577882615751565b615782818561575c565b9350615792818560208601613af4565b61579b81613b27565b840191505092915050565b60006080820190506157bb6000830187613c28565b6157c86020830186613c28565b6157d5604083018561409a565b81810360608301526157e7818461576d565b905095945050505050565b60008151905061580181613a49565b92915050565b60006020828403121561581d5761581c613a13565b5b600061582b848285016157f2565b91505092915050565b7f416464726573733a2064656c65676174652063616c6c20746f206e6f6e2d636f60008201527f6e74726163740000000000000000000000000000000000000000000000000000602082015250565b6000615890602683613ae3565b915061589b82615834565b604082019050919050565b600060208201905081810360008301526158bf81615883565b9050919050565b60006158d182615751565b6158db8185614824565b93506158eb818560208601613af4565b80840191505092915050565b600061590382846158c6565b915081905092915050565b7f4552433732313a206d696e7420746f20746865207a65726f2061646472657373600082015250565b6000615944602083613ae3565b915061594f8261590e565b602082019050919050565b6000602082019050818103600083015261597381615937565b9050919050565b7f4552433732313a20746f6b656e20616c7265616479206d696e74656400000000600082015250565b60006159b0601c83613ae3565b91506159bb8261597a565b602082019050919050565b600060208201905081810360008301526159df816159a3565b905091905056fe416464726573733a206c6f772d6c6576656c2064656c65676174652063616c6c206661696c6564a264697066735822122075ec9fd0b310a1a1a47994d29ec4f1a11dac8a6c446319739ad3ac81c9ad724d64736f6c634300080a0033",
    "linkReferences": {
        "contracts/libraries/GenSVG.sol": {
            "GenSVG": [
                {
                    "length": 20,
                    "start": 7177
                }
            ]
        }
    },
    "deployedLinkReferences": {
        "contracts/libraries/GenSVG.sol": {
            "GenSVG": [
                {
                    "length": 20,
                    "start": 7053
                }
            ]
        }
    }
}